{"abi":[{"type":"constructor","inputs":[{"name":"subscriptionId","type":"uint256","internalType":"uint256"},{"name":"gasLane","type":"bytes32","internalType":"bytes32"},{"name":"interval","type":"uint256","internalType":"uint256"},{"name":"entranceFee","type":"uint256","internalType":"uint256"},{"name":"callbackGasLimit","type":"uint32","internalType":"uint32"},{"name":"vrfCoordinatorV2","type":"address","internalType":"address"},{"name":"owner_address","type":"address","internalType":"address"}],"stateMutability":"nonpayable"},{"type":"function","name":"acceptOwnership","inputs":[],"outputs":[],"stateMutability":"nonpayable"},{"type":"function","name":"checkUpkeep","inputs":[{"name":"","type":"bytes","internalType":"bytes"}],"outputs":[{"name":"upkeepNeeded","type":"bool","internalType":"bool"},{"name":"","type":"bytes","internalType":"bytes"}],"stateMutability":"view"},{"type":"function","name":"enterRaffle","inputs":[],"outputs":[],"stateMutability":"payable"},{"type":"function","name":"getEntranceFee","inputs":[],"outputs":[{"name":"","type":"uint256","internalType":"uint256"}],"stateMutability":"view"},{"type":"function","name":"getInterval","inputs":[],"outputs":[{"name":"","type":"uint256","internalType":"uint256"}],"stateMutability":"view"},{"type":"function","name":"getLastTimeStamp","inputs":[],"outputs":[{"name":"","type":"uint256","internalType":"uint256"}],"stateMutability":"view"},{"type":"function","name":"getNumWords","inputs":[],"outputs":[{"name":"","type":"uint256","internalType":"uint256"}],"stateMutability":"pure"},{"type":"function","name":"getNumberOfPlayers","inputs":[],"outputs":[{"name":"","type":"uint256","internalType":"uint256"}],"stateMutability":"view"},{"type":"function","name":"getPlayer","inputs":[{"name":"index","type":"uint256","internalType":"uint256"}],"outputs":[{"name":"","type":"address","internalType":"address"}],"stateMutability":"view"},{"type":"function","name":"getRaffleState","inputs":[],"outputs":[{"name":"","type":"uint8","internalType":"enum Raffle.RaffleState"}],"stateMutability":"view"},{"type":"function","name":"getRecentWinner","inputs":[],"outputs":[{"name":"","type":"address","internalType":"address"}],"stateMutability":"view"},{"type":"function","name":"getRequestConfirmations","inputs":[],"outputs":[{"name":"","type":"uint256","internalType":"uint256"}],"stateMutability":"pure"},{"type":"function","name":"owner","inputs":[],"outputs":[{"name":"","type":"address","internalType":"address"}],"stateMutability":"view"},{"type":"function","name":"performUpkeep","inputs":[{"name":"","type":"bytes","internalType":"bytes"}],"outputs":[],"stateMutability":"nonpayable"},{"type":"function","name":"rawFulfillRandomWords","inputs":[{"name":"requestId","type":"uint256","internalType":"uint256"},{"name":"randomWords","type":"uint256[]","internalType":"uint256[]"}],"outputs":[],"stateMutability":"nonpayable"},{"type":"function","name":"restartRaffle","inputs":[],"outputs":[],"stateMutability":"nonpayable"},{"type":"function","name":"s_vrfCoordinator","inputs":[],"outputs":[{"name":"","type":"address","internalType":"contract IVRFCoordinatorV2Plus"}],"stateMutability":"view"},{"type":"function","name":"setCoordinator","inputs":[{"name":"_vrfCoordinator","type":"address","internalType":"address"}],"outputs":[],"stateMutability":"nonpayable"},{"type":"function","name":"transferOwnership","inputs":[{"name":"to","type":"address","internalType":"address"}],"outputs":[],"stateMutability":"nonpayable"},{"type":"event","name":"CoordinatorSet","inputs":[{"name":"vrfCoordinator","type":"address","indexed":false,"internalType":"address"}],"anonymous":false},{"type":"event","name":"OwnershipTransferRequested","inputs":[{"name":"from","type":"address","indexed":true,"internalType":"address"},{"name":"to","type":"address","indexed":true,"internalType":"address"}],"anonymous":false},{"type":"event","name":"OwnershipTransferred","inputs":[{"name":"from","type":"address","indexed":true,"internalType":"address"},{"name":"to","type":"address","indexed":true,"internalType":"address"}],"anonymous":false},{"type":"event","name":"RaffleEnter","inputs":[{"name":"player","type":"address","indexed":true,"internalType":"address"}],"anonymous":false},{"type":"event","name":"RequestedRaffleWinner","inputs":[{"name":"requestId","type":"uint256","indexed":true,"internalType":"uint256"}],"anonymous":false},{"type":"event","name":"WinnerPicked","inputs":[{"name":"player","type":"address","indexed":true,"internalType":"address"}],"anonymous":false},{"type":"error","name":"OnlyCoordinatorCanFulfill","inputs":[{"name":"have","type":"address","internalType":"address"},{"name":"want","type":"address","internalType":"address"}]},{"type":"error","name":"OnlyOwnerOrCoordinator","inputs":[{"name":"have","type":"address","internalType":"address"},{"name":"owner","type":"address","internalType":"address"},{"name":"coordinator","type":"address","internalType":"address"}]},{"type":"error","name":"Raffle__RaffleNotOpen","inputs":[]},{"type":"error","name":"Raffle__SendMoreToEnterRaffle","inputs":[]},{"type":"error","name":"Raffle__TransferFailed","inputs":[]},{"type":"error","name":"Raffle__UpkeepNotNeeded","inputs":[{"name":"currentBalance","type":"uint256","internalType":"uint256"},{"name":"numPlayers","type":"uint256","internalType":"uint256"},{"name":"raffleState","type":"uint256","internalType":"uint256"}]},{"type":"error","name":"ZeroAddress","inputs":[]}],"bytecode":{"object":"0x6101406040523480156200001257600080fd5b50604051620027c0380380620027c08339818101604052810190620000389190620004dd565b81338060008073ffffffffffffffffffffffffffffffffffffffff168273ffffffffffffffffffffffffffffffffffffffff1603620000ae576040517f08c379a0000000000000000000000000000000000000000000000000000000008152600401620000a590620005f1565b60405180910390fd5b816000806101000a81548173ffffffffffffffffffffffffffffffffffffffff021916908373ffffffffffffffffffffffffffffffffffffffff160217905550600073ffffffffffffffffffffffffffffffffffffffff168173ffffffffffffffffffffffffffffffffffffffff1614620001355762000134816200028d60201b60201c565b5b505050600073ffffffffffffffffffffffffffffffffffffffff168173ffffffffffffffffffffffffffffffffffffffff16036200019f576040517fd92e233d00000000000000000000000000000000000000000000000000000000815260040160405180910390fd5b80600260006101000a81548173ffffffffffffffffffffffffffffffffffffffff021916908373ffffffffffffffffffffffffffffffffffffffff160217905550508073ffffffffffffffffffffffffffffffffffffffff1660808173ffffffffffffffffffffffffffffffffffffffff16815250508560c081815250508461010081815250508660a081815250508361012081815250506000600660006101000a81548160ff0219169083600181111562000260576200025f62000613565b5b0217905550426003819055508263ffffffff1660e08163ffffffff168152505050505050505050620006b4565b3373ffffffffffffffffffffffffffffffffffffffff168173ffffffffffffffffffffffffffffffffffffffff1603620002fe576040517f08c379a0000000000000000000000000000000000000000000000000000000008152600401620002f59062000692565b60405180910390fd5b80600160006101000a81548173ffffffffffffffffffffffffffffffffffffffff021916908373ffffffffffffffffffffffffffffffffffffffff1602179055508073ffffffffffffffffffffffffffffffffffffffff1660008054906101000a900473ffffffffffffffffffffffffffffffffffffffff1673ffffffffffffffffffffffffffffffffffffffff167fed8889f560326eb138920d842192f0eb3dd22b4f139c87a2c57538e05bae127860405160405180910390a350565b600080fd5b6000819050919050565b620003d681620003c1565b8114620003e257600080fd5b50565b600081519050620003f681620003cb565b92915050565b6000819050919050565b6200041181620003fc565b81146200041d57600080fd5b50565b600081519050620004318162000406565b92915050565b600063ffffffff82169050919050565b620004528162000437565b81146200045e57600080fd5b50565b600081519050620004728162000447565b92915050565b600073ffffffffffffffffffffffffffffffffffffffff82169050919050565b6000620004a58262000478565b9050919050565b620004b78162000498565b8114620004c357600080fd5b50565b600081519050620004d781620004ac565b92915050565b600080600080600080600060e0888a031215620004ff57620004fe620003bc565b5b60006200050f8a828b01620003e5565b9750506020620005228a828b0162000420565b9650506040620005358a828b01620003e5565b9550506060620005488a828b01620003e5565b94505060806200055b8a828b0162000461565b93505060a06200056e8a828b01620004c6565b92505060c0620005818a828b01620004c6565b91505092959891949750929550565b600082825260208201905092915050565b7f43616e6e6f7420736574206f776e657220746f207a65726f0000000000000000600082015250565b6000620005d960188362000590565b9150620005e682620005a1565b602082019050919050565b600060208201905081810360008301526200060c81620005ca565b9050919050565b7f4e487b7100000000000000000000000000000000000000000000000000000000600052602160045260246000fd5b7f43616e6e6f74207472616e7366657220746f2073656c66000000000000000000600082015250565b60006200067a60178362000590565b9150620006878262000642565b602082019050919050565b60006020820190508181036000830152620006ad816200066b565b9050919050565b60805160a05160c05160e05161010051610120516120ae620007126000396000818161042201526105250152600081816109f30152610e3c015260006108820152600061082b015260006108510152600061069401526120ae6000f3fe6080604052600436106101145760003560e01c80636e04ff0d116100a05780639eccacf6116100645780639eccacf614610337578063c1c244e814610362578063e55ae4e81461038d578063f2fde38b146103ca578063fd6673f5146103f357610114565b80636e04ff0d1461026357806379ba5097146102a15780638da5cb5b146102b85780638ea98117146102e357806391ad27b41461030c57610114565b80633baa3f42116100e75780633baa3f42146101a25780634585e33b146101b9578063473f1ddc146101e257806353a2c19a1461020d5780635f1b0fd81461023857610114565b806309bc33a714610119578063115cbaf5146101445780631fe543e31461016f5780632cfcc53914610198575b600080fd5b34801561012557600080fd5b5061012e61041e565b60405161013b91906114dc565b60405180910390f35b34801561015057600080fd5b50610159610446565b604051610166919061156e565b60405180910390f35b34801561017b57600080fd5b506101966004803603810190610191919061162e565b61045d565b005b6101a0610523565b005b3480156101ae57600080fd5b506101b7610692565b005b3480156101c557600080fd5b506101e060048036038101906101db91906116e4565b61072a565b005b3480156101ee57600080fd5b506101f761096a565b6040516102049190611772565b60405180910390f35b34801561021957600080fd5b50610222610994565b60405161022f91906114dc565b60405180910390f35b34801561024457600080fd5b5061024d6109a3565b60405161025a91906114dc565b60405180910390f35b34801561026f57600080fd5b5061028a600480360381019061028591906118ce565b6109b0565b6040516102989291906119b1565b60405180910390f35b3480156102ad57600080fd5b506102b6610a99565b005b3480156102c457600080fd5b506102cd610c2e565b6040516102da9190611772565b60405180910390f35b3480156102ef57600080fd5b5061030a60048036038101906103059190611a0d565b610c57565b005b34801561031857600080fd5b50610321610e38565b60405161032e91906114dc565b60405180910390f35b34801561034357600080fd5b5061034c610e60565b6040516103599190611a99565b60405180910390f35b34801561036e57600080fd5b50610377610e86565b60405161038491906114dc565b60405180910390f35b34801561039957600080fd5b506103b460048036038101906103af9190611ab4565b610e90565b6040516103c19190611772565b60405180910390f35b3480156103d657600080fd5b506103f160048036038101906103ec9190611a0d565b610ed8565b005b3480156103ff57600080fd5b50610408610eec565b60405161041591906114dc565b60405180910390f35b60007f0000000000000000000000000000000000000000000000000000000000000000905090565b6000600660009054906101000a900460ff16905090565b600260009054906101000a900473ffffffffffffffffffffffffffffffffffffffff1673ffffffffffffffffffffffffffffffffffffffff163373ffffffffffffffffffffffffffffffffffffffff16146105135733600260009054906101000a900473ffffffffffffffffffffffffffffffffffffffff166040517f1cf993f400000000000000000000000000000000000000000000000000000000815260040161050a929190611ae1565b60405180910390fd5b61051e838383610ef9565b505050565b7f000000000000000000000000000000000000000000000000000000000000000034101561057d576040517f3038c00a00000000000000000000000000000000000000000000000000000000815260040160405180910390fd5b60006001811115610591576105906114f7565b5b600660009054906101000a900460ff1660018111156105b3576105b26114f7565b5b146105ea576040517fd24a271400000000000000000000000000000000000000000000000000000000815260040160405180910390fd5b6005339080600181540180825580915050600190039060005260206000200160009091909190916101000a81548173ffffffffffffffffffffffffffffffffffffffff021916908373ffffffffffffffffffffffffffffffffffffffff1602179055503373ffffffffffffffffffffffffffffffffffffffff167f0805e1d667bddb8a95f0f09880cf94f403fb596ce79928d9f29b74203ba284d460405160405180910390a2565b7f000000000000000000000000000000000000000000000000000000000000000073ffffffffffffffffffffffffffffffffffffffff163373ffffffffffffffffffffffffffffffffffffffff1614610720576040517f08c379a000000000000000000000000000000000000000000000000000000000815260040161071790611b8d565b60405180910390fd5b610728611134565b565b6000610744604051806020016040528060008152506109b0565b509050806107b35747600580549050600660009054906101000a900460ff166001811115610775576107746114f7565b5b6040517f584327aa0000000000000000000000000000000000000000000000000000000081526004016107aa93929190611bad565b60405180910390fd5b6001600660006101000a81548160ff021916908360018111156107d9576107d86114f7565b5b02179055506000600260009054906101000a900473ffffffffffffffffffffffffffffffffffffffff1673ffffffffffffffffffffffffffffffffffffffff16639b1c385e6040518060c001604052807f000000000000000000000000000000000000000000000000000000000000000081526020017f00000000000000000000000000000000000000000000000000000000000000008152602001600361ffff1681526020017f000000000000000000000000000000000000000000000000000000000000000063ffffffff168152602001600163ffffffff1681526020016108d36040518060200160405280600015158152506111c8565b8152506040518263ffffffff1660e01b81526004016108f29190611d1b565b6020604051808303816000875af1158015610911573d6000803e3d6000fd5b505050506040513d601f19601f820116820180604052508101906109359190611d52565b9050807fcd6e45c8998311cab7e9d4385596cac867e20a0587194b954fa3a731c93ce78b60405160405180910390a250505050565b6000600460009054906101000a900473ffffffffffffffffffffffffffffffffffffffff16905090565b6000600163ffffffff16905090565b6000600361ffff16905090565b600060606000600660009054906101000a900460ff1660018111156109d8576109d76114f7565b5b600060018111156109ec576109eb6114f7565b5b14905060007f000000000000000000000000000000000000000000000000000000000000000060035442610a209190611dae565b1190506000600160058054905011905060008047119050828015610a415750835b8015610a4a5750805b8015610a535750815b9550856040518060400160405280600381526020017f30783000000000000000000000000000000000000000000000000000000000008152509550955050505050915091565b600160009054906101000a900473ffffffffffffffffffffffffffffffffffffffff1673ffffffffffffffffffffffffffffffffffffffff163373ffffffffffffffffffffffffffffffffffffffff1614610b29576040517f08c379a0000000000000000000000000000000000000000000000000000000008152600401610b2090611e2e565b60405180910390fd5b60008060009054906101000a900473ffffffffffffffffffffffffffffffffffffffff169050336000806101000a81548173ffffffffffffffffffffffffffffffffffffffff021916908373ffffffffffffffffffffffffffffffffffffffff1602179055506000600160006101000a81548173ffffffffffffffffffffffffffffffffffffffff021916908373ffffffffffffffffffffffffffffffffffffffff1602179055503373ffffffffffffffffffffffffffffffffffffffff168173ffffffffffffffffffffffffffffffffffffffff167f8be0079c531659141344cd1fd0a4f28419497f9722a3daafe3b4186f6b6457e060405160405180910390a350565b60008060009054906101000a900473ffffffffffffffffffffffffffffffffffffffff16905090565b610c5f610c2e565b73ffffffffffffffffffffffffffffffffffffffff163373ffffffffffffffffffffffffffffffffffffffff1614158015610ce85750600260009054906101000a900473ffffffffffffffffffffffffffffffffffffffff1673ffffffffffffffffffffffffffffffffffffffff163373ffffffffffffffffffffffffffffffffffffffff1614155b15610d575733610cf6610c2e565b600260009054906101000a900473ffffffffffffffffffffffffffffffffffffffff166040517f061db9c1000000000000000000000000000000000000000000000000000000008152600401610d4e93929190611e4e565b60405180910390fd5b600073ffffffffffffffffffffffffffffffffffffffff168173ffffffffffffffffffffffffffffffffffffffff1603610dbd576040517fd92e233d00000000000000000000000000000000000000000000000000000000815260040160405180910390fd5b80600260006101000a81548173ffffffffffffffffffffffffffffffffffffffff021916908373ffffffffffffffffffffffffffffffffffffffff1602179055507fd1a6a14209a385a964d036e404cb5cfb71f4000cdb03c9366292430787261be681604051610e2d9190611772565b60405180910390a150565b60007f0000000000000000000000000000000000000000000000000000000000000000905090565b600260009054906101000a900473ffffffffffffffffffffffffffffffffffffffff1681565b6000600354905090565b600060058281548110610ea657610ea5611e85565b5b9060005260206000200160009054906101000a900473ffffffffffffffffffffffffffffffffffffffff169050919050565b610ee0611260565b610ee9816112f0565b50565b6000600580549050905090565b600060058054905083836000818110610f1557610f14611e85565b5b90506020020135610f269190611ee3565b9050600060058281548110610f3e57610f3d611e85565b5b9060005260206000200160009054906101000a900473ffffffffffffffffffffffffffffffffffffffff16905080600460006101000a81548173ffffffffffffffffffffffffffffffffffffffff021916908373ffffffffffffffffffffffffffffffffffffffff160217905550600067ffffffffffffffff811115610fc757610fc66117a3565b5b604051908082528060200260200182016040528015610ff55781602001602082028036833780820191505090505b506005908051906020019061100b92919061141c565b506000600660006101000a81548160ff02191690836001811115611032576110316114f7565b5b0217905550426003819055508073ffffffffffffffffffffffffffffffffffffffff167f5b690ec4a06fe979403046eaeea5b3ce38524683c3001f662c8b5a829632f7df60405160405180910390a260008173ffffffffffffffffffffffffffffffffffffffff16476040516110a790611f45565b60006040518083038185875af1925050503d80600081146110e4576040519150601f19603f3d011682016040523d82523d6000602084013e6110e9565b606091505b5050905080611124576040517fa1d04b3900000000000000000000000000000000000000000000000000000000815260040160405180910390fd5b61112c611134565b505050505050565b600067ffffffffffffffff81111561114f5761114e6117a3565b5b60405190808252806020026020018201604052801561117d5781602001602082028036833780820191505090505b506005908051906020019061119392919061141c565b506000600660006101000a81548160ff021916908360018111156111ba576111b96114f7565b5b021790555042600381905550565b60607f92fd13387c7fe7befbc38d303d6468778fb9731bc4583f17d92989c6fcfdeaaa826040516024016111fc9190611f85565b604051602081830303815290604052907bffffffffffffffffffffffffffffffffffffffffffffffffffffffff19166020820180517bffffffffffffffffffffffffffffffffffffffffffffffffffffffff83818316178352505050509050919050565b60008054906101000a900473ffffffffffffffffffffffffffffffffffffffff1673ffffffffffffffffffffffffffffffffffffffff163373ffffffffffffffffffffffffffffffffffffffff16146112ee576040517f08c379a00000000000000000000000000000000000000000000000000000000081526004016112e590611fec565b60405180910390fd5b565b3373ffffffffffffffffffffffffffffffffffffffff168173ffffffffffffffffffffffffffffffffffffffff160361135e576040517f08c379a000000000000000000000000000000000000000000000000000000000815260040161135590612058565b60405180910390fd5b80600160006101000a81548173ffffffffffffffffffffffffffffffffffffffff021916908373ffffffffffffffffffffffffffffffffffffffff1602179055508073ffffffffffffffffffffffffffffffffffffffff1660008054906101000a900473ffffffffffffffffffffffffffffffffffffffff1673ffffffffffffffffffffffffffffffffffffffff167fed8889f560326eb138920d842192f0eb3dd22b4f139c87a2c57538e05bae127860405160405180910390a350565b828054828255906000526020600020908101928215611495579160200282015b828111156114945782518260006101000a81548173ffffffffffffffffffffffffffffffffffffffff021916908373ffffffffffffffffffffffffffffffffffffffff1602179055509160200191906001019061143c565b5b5090506114a291906114a6565b5090565b5b808211156114bf5760008160009055506001016114a7565b5090565b6000819050919050565b6114d6816114c3565b82525050565b60006020820190506114f160008301846114cd565b92915050565b7f4e487b7100000000000000000000000000000000000000000000000000000000600052602160045260246000fd5b60028110611537576115366114f7565b5b50565b600081905061154882611526565b919050565b60006115588261153a565b9050919050565b6115688161154d565b82525050565b6000602082019050611583600083018461155f565b92915050565b6000604051905090565b600080fd5b600080fd5b6115a6816114c3565b81146115b157600080fd5b50565b6000813590506115c38161159d565b92915050565b600080fd5b600080fd5b600080fd5b60008083601f8401126115ee576115ed6115c9565b5b8235905067ffffffffffffffff81111561160b5761160a6115ce565b5b602083019150836020820283011115611627576116266115d3565b5b9250929050565b60008060006040848603121561164757611646611593565b5b6000611655868287016115b4565b935050602084013567ffffffffffffffff81111561167657611675611598565b5b611682868287016115d8565b92509250509250925092565b60008083601f8401126116a4576116a36115c9565b5b8235905067ffffffffffffffff8111156116c1576116c06115ce565b5b6020830191508360018202830111156116dd576116dc6115d3565b5b9250929050565b600080602083850312156116fb576116fa611593565b5b600083013567ffffffffffffffff81111561171957611718611598565b5b6117258582860161168e565b92509250509250929050565b600073ffffffffffffffffffffffffffffffffffffffff82169050919050565b600061175c82611731565b9050919050565b61176c81611751565b82525050565b60006020820190506117876000830184611763565b92915050565b600080fd5b6000601f19601f8301169050919050565b7f4e487b7100000000000000000000000000000000000000000000000000000000600052604160045260246000fd5b6117db82611792565b810181811067ffffffffffffffff821117156117fa576117f96117a3565b5b80604052505050565b600061180d611589565b905061181982826117d2565b919050565b600067ffffffffffffffff821115611839576118386117a3565b5b61184282611792565b9050602081019050919050565b82818337600083830152505050565b600061187161186c8461181e565b611803565b90508281526020810184848401111561188d5761188c61178d565b5b61189884828561184f565b509392505050565b600082601f8301126118b5576118b46115c9565b5b81356118c584826020860161185e565b91505092915050565b6000602082840312156118e4576118e3611593565b5b600082013567ffffffffffffffff81111561190257611901611598565b5b61190e848285016118a0565b91505092915050565b60008115159050919050565b61192c81611917565b82525050565b600081519050919050565b600082825260208201905092915050565b60005b8381101561196c578082015181840152602081019050611951565b60008484015250505050565b600061198382611932565b61198d818561193d565b935061199d81856020860161194e565b6119a681611792565b840191505092915050565b60006040820190506119c66000830185611923565b81810360208301526119d88184611978565b90509392505050565b6119ea81611751565b81146119f557600080fd5b50565b600081359050611a07816119e1565b92915050565b600060208284031215611a2357611a22611593565b5b6000611a31848285016119f8565b91505092915050565b6000819050919050565b6000611a5f611a5a611a5584611731565b611a3a565b611731565b9050919050565b6000611a7182611a44565b9050919050565b6000611a8382611a66565b9050919050565b611a9381611a78565b82525050565b6000602082019050611aae6000830184611a8a565b92915050565b600060208284031215611aca57611ac9611593565b5b6000611ad8848285016115b4565b91505092915050565b6000604082019050611af66000830185611763565b611b036020830184611763565b9392505050565b600082825260208201905092915050565b7f4f6e6c79206f776e65722063616e2063616c6c20746869732066756e6374696f60008201527f6e00000000000000000000000000000000000000000000000000000000000000602082015250565b6000611b77602183611b0a565b9150611b8282611b1b565b604082019050919050565b60006020820190508181036000830152611ba681611b6a565b9050919050565b6000606082019050611bc260008301866114cd565b611bcf60208301856114cd565b611bdc60408301846114cd565b949350505050565b6000819050919050565b611bf781611be4565b82525050565b611c06816114c3565b82525050565b600061ffff82169050919050565b611c2381611c0c565b82525050565b600063ffffffff82169050919050565b611c4281611c29565b82525050565b600082825260208201905092915050565b6000611c6482611932565b611c6e8185611c48565b9350611c7e81856020860161194e565b611c8781611792565b840191505092915050565b600060c083016000830151611caa6000860182611bee565b506020830151611cbd6020860182611bfd565b506040830151611cd06040860182611c1a565b506060830151611ce36060860182611c39565b506080830151611cf66080860182611c39565b5060a083015184820360a0860152611d0e8282611c59565b9150508091505092915050565b60006020820190508181036000830152611d358184611c92565b905092915050565b600081519050611d4c8161159d565b92915050565b600060208284031215611d6857611d67611593565b5b6000611d7684828501611d3d565b91505092915050565b7f4e487b7100000000000000000000000000000000000000000000000000000000600052601160045260246000fd5b6000611db9826114c3565b9150611dc4836114c3565b9250828203905081811115611ddc57611ddb611d7f565b5b92915050565b7f4d7573742062652070726f706f736564206f776e657200000000000000000000600082015250565b6000611e18601683611b0a565b9150611e2382611de2565b602082019050919050565b60006020820190508181036000830152611e4781611e0b565b9050919050565b6000606082019050611e636000830186611763565b611e706020830185611763565b611e7d6040830184611763565b949350505050565b7f4e487b7100000000000000000000000000000000000000000000000000000000600052603260045260246000fd5b7f4e487b7100000000000000000000000000000000000000000000000000000000600052601260045260246000fd5b6000611eee826114c3565b9150611ef9836114c3565b925082611f0957611f08611eb4565b5b828206905092915050565b600081905092915050565b50565b6000611f2f600083611f14565b9150611f3a82611f1f565b600082019050919050565b6000611f5082611f22565b9150819050919050565b611f6381611917565b82525050565b602082016000820151611f7f6000850182611f5a565b50505050565b6000602082019050611f9a6000830184611f69565b92915050565b7f4f6e6c792063616c6c61626c65206279206f776e657200000000000000000000600082015250565b6000611fd6601683611b0a565b9150611fe182611fa0565b602082019050919050565b6000602082019050818103600083015261200581611fc9565b9050919050565b7f43616e6e6f74207472616e7366657220746f2073656c66000000000000000000600082015250565b6000612042601783611b0a565b915061204d8261200c565b602082019050919050565b6000602082019050818103600083015261207181612035565b905091905056fea26469706673582212206b58000b40d24231346c44f0a3997658f2d82e96ae6c3c2a9db56e10f6beae2164736f6c63430008130033","linkReferences":{}},"methodIdentifiers":{"acceptOwnership()":"79ba5097","checkUpkeep(bytes)":"6e04ff0d","enterRaffle()":"2cfcc539","getEntranceFee()":"09bc33a7","getInterval()":"91ad27b4","getLastTimeStamp()":"c1c244e8","getNumWords()":"53a2c19a","getNumberOfPlayers()":"fd6673f5","getPlayer(uint256)":"e55ae4e8","getRaffleState()":"115cbaf5","getRecentWinner()":"473f1ddc","getRequestConfirmations()":"5f1b0fd8","owner()":"8da5cb5b","performUpkeep(bytes)":"4585e33b","rawFulfillRandomWords(uint256,uint256[])":"1fe543e3","restartRaffle()":"3baa3f42","s_vrfCoordinator()":"9eccacf6","setCoordinator(address)":"8ea98117","transferOwnership(address)":"f2fde38b"},"id":40}